{
  "contractName": "Donate",
  "abi": [
    {
      "constant": true,
      "inputs": [],
      "name": "donor",
      "outputs": [
        {
          "name": "",
          "type": "address"
        }
      ],
      "payable": false,
      "stateMutability": "view",
      "type": "function"
    },
    {
      "constant": true,
      "inputs": [
        {
          "name": "",
          "type": "uint256"
        }
      ],
      "name": "donors",
      "outputs": [
        {
          "name": "donorName",
          "type": "string"
        },
        {
          "name": "balance",
          "type": "uint256"
        }
      ],
      "payable": false,
      "stateMutability": "view",
      "type": "function"
    },
    {
      "constant": true,
      "inputs": [
        {
          "name": "",
          "type": "uint256"
        }
      ],
      "name": "acceptors",
      "outputs": [
        {
          "name": "acceptorName",
          "type": "string"
        },
        {
          "name": "balance",
          "type": "uint256"
        }
      ],
      "payable": false,
      "stateMutability": "view",
      "type": "function"
    },
    {
      "inputs": [],
      "payable": false,
      "stateMutability": "nonpayable",
      "type": "constructor"
    }
  ],
  "bytecode": "0x6060604052341561000f57600080fd5b6000806000806040805190810160405280600481526020017f4164616d00000000000000000000000000000000000000000000000000000000815250846000019080519060200190610062929190610180565b506103e884600101819055506040805190810160405280600381526020017f45766500000000000000000000000000000000000000000000000000000000008152508360000190805190602001906100bb929190610180565b506103e883600101819055506040805190810160405280600481526020017f586d656e00000000000000000000000000000000000000000000000000000000815250826000019080519060200190610114929190610180565b50600082600101819055506040805190810160405280600681526020017f466f6f626172000000000000000000000000000000000000000000000000000081525081600001908051906020019061016c929190610180565b506000816001018190555050505050610225565b828054600181600116156101000203166002900490600052602060002090601f016020900481019282601f106101c157805160ff19168380011785556101ef565b828001600101855582156101ef579182015b828111156101ee5782518255916020019190600101906101d3565b5b5090506101fc9190610200565b5090565b61022291905b8082111561021e576000816000905550600101610206565b5090565b90565b6103c0806102346000396000f300606060405260043610610057576000357c0100000000000000000000000000000000000000000000000000000000900463ffffffff16806325223bd41461005c5780634abfa163146100b1578063bc13b92114610154575b600080fd5b341561006757600080fd5b61006f6101f7565b604051808273ffffffffffffffffffffffffffffffffffffffff1673ffffffffffffffffffffffffffffffffffffffff16815260200191505060405180910390f35b34156100bc57600080fd5b6100d2600480803590602001909190505061021c565b6040518080602001838152602001828103825284818151815260200191508051906020019080838360005b838110156101185780820151818401526020810190506100fd565b50505050905090810190601f1680156101455780820380516001836020036101000a031916815260200191505b50935050505060405180910390f35b341561015f57600080fd5b61017560048080359060200190919050506102d8565b6040518080602001838152602001828103825284818151815260200191508051906020019080838360005b838110156101bb5780820151818401526020810190506101a0565b50505050905090810190601f1680156101e85780820380516001836020036101000a031916815260200191505b50935050505060405180910390f35b6000809054906101000a900473ffffffffffffffffffffffffffffffffffffffff1681565b6001602052806000526040600020600091509050806000018054600181600116156101000203166002900480601f0160208091040260200160405190810160405280929190818152602001828054600181600116156101000203166002900480156102c85780601f1061029d576101008083540402835291602001916102c8565b820191906000526020600020905b8154815290600101906020018083116102ab57829003601f168201915b5050505050908060010154905082565b6002602052806000526040600020600091509050806000018054600181600116156101000203166002900480601f0160208091040260200160405190810160405280929190818152602001828054600181600116156101000203166002900480156103845780601f1061035957610100808354040283529160200191610384565b820191906000526020600020905b81548152906001019060200180831161036757829003601f168201915b50505050509080600101549050825600a165627a7a72305820c4d89538b5b288903cae421567fad763da7a6c53734c8eb6655c4b306778da010029",
  "source": "pragma solidity ^0.4.17;\n\ncontract Donate {\n \nfunction Donate() public{\n  Donor storage donor1;\n  donor1.donorName  = \"Adam\";\n  donor1.balance = 1000;\n  Donor storage donor2;\n  donor2.donorName = \"Eve\";\n  donor2.balance = 1000;\n  Acceptor storage acc1;\n  acc1.acceptorName = \"Xmen\";\n  acc1.balance =0;\n  Acceptor storage acc2;\n  acc2.acceptorName = \"Foobar\";\n  acc2.balance = 0;\n }\n address public donor;\n mapping (uint => Donor) public donors;\n struct Donor {\n\tstring donorName;\n\tuint balance;\n }\n mapping (uint => Acceptor) public acceptors;\n struct Acceptor {\n\tstring acceptorName;\n\tuint balance;\n }\n}\n\t\n",
  "sourcePath": "/Users/himania/Workspaces/blockchain-demo-network/app/contracts/Donate.sol",
  "compiler": {
    "name": "solc",
    "version": "0.4.21+commit.dfe3193c.Emscripten.clang"
  },
  "schemaVersion": "2.0.0",
  "updatedAt": "2018-05-19T10:48:45.917Z"
}